:030000000265E1B5
:0C65E100787FE4F6D8FD75810702588928
:10391F00D6D0BEB0D4B0B5E7D7D3004C43445F5731
:10392F003A004C43445F483A00496E6372656173D5
:10393F0065696E67204E756E3A00FFFFFFFFFFFF50
:10394F00FFFFFFFFFFFFFFFFFFFFFFFFFFFFFFFF78
:10395F00FFFFFFFFFFFFFFFFF7BEFFFFFFDEC638D2
:10396F008C926B8E6B6E7C10AD96E73CFFFFFFFF6A
:10397F00FFFFFFFFFFFFFFFFFFFFFFFFFFFFFFFF48
:10398F00FFFFFFFFFFFFFFFFFFFFFFFFFFFFFFFF38
:10399F00FFFFFFFFFFFFFFFFFFFFFFFFFFFFFFFF28
:1039AF00FFFFFFFFFFFFFFFFEF5D9D15634F426CB2
:1039BF00320A298819461925214531E86B8EC638F8
:1039CF00FFFFFFFFFFFFFFFFFFFFFFFFFFFFFFFFF8
:1039DF00FFFFFFFFFFFFFFFFFFFFFFFFFFFFFFFFE8
:1039EF00FFFFFFFFFFFFFFFFFFFFFFFFFFFFFFFFD8
:1039FF00FFFFFFFFFFFFA53653104B1053514B0F27
:103A0F003A6C31E92167192510E408A30062088395
:103A1F0052CBD69AFFFFFFFFFFFFFFFFFFFFFFFF16
:103A2F00FFFFFFFFFFFFFFFFFFFFFFFFFFFFFFFF97
:103A3F00FFFFFFFFFFFFFFFFFFFFFFFFFFFFFFFF87
:103A4F00FFFFE73C637063B37CB863F54311324DFE
:103A5F0029EA21881926190519051104110410E402
:103A6F00008308A38C72FFFFFFFFFFFFFFFFFFFF25
:103A7F00FFFFFFFFFFFFFFFFFFFFFFFFFFFFFFFF47
:103A8F00FFFFFFFFFFFFFFFFFFFFFFFFFFFFFFFF37
:103A9F00DEDB3A4B42F06C354B5432B12A2E21EB20
:103AAF0021A9196719051104110411041104110436
:103ABF00190510E4004273AFFFFFFFFFFFFFFFFF89
:103ACF00FFFFFFFFFFFFFFFFFFFFFFFFFFFFFFFFF7
:103ADF00FFFFFFFFFFFFFFFFFFFFFFFFFFFFEF5D99
:103AEF003209324C4B10328F2A4F2A2E19CC19899A
:103AFF002189194719051104110410C410C41104A8
:103B0F001104110410E400428431FFFFFFFFFFFF97
:103B1F00FFFFFFFFFFFFFFFFFFFFFFFFFFFFFFFFA6
:103B2F00FFFFFFFFFFFFFFFFFFFFFFFFFFFF52EC56
:103B3F001947324C2A0B21EC21EC220C5B914AEEF7
:103B4F0011061926190410E410E429A7216608A309
:103B5F0019051104110410E40082BDF7FFFFFFFFE8
:103B6F00FFFFFFFFFFFFFFFFFFFFFFFFFFFFFFFF56
:103B7F00FFFFFFFFFFFFFFFFFFFFFFFFA5350883DD
:103B8F0021882188218921AA218A426B8C71FFFF0C
:103B9F008C720883110408C44229DEFBEF5D5AECD6
:103BAF000883110411041104088331E8FFDFFFFFBC
:103BBF00FFFFFFFFFFFFFFFFFFFFFFFFFFFFFFFF06
:103BCF00FFFFFFFFFFFFFFFFFFFFF7BE31C710C46F
:103BDF00192519261947194729A8528A4A28AD5578
:103BEF00FFFF31E808A319056B4D6B4DFFFFEF7D0C
:103BFF00214510C41104110411040062AD76FFFFBA
:103C0F00FFFFFFFFFFFFFFFFFFFFFFFFFFFFFFFFB5
:103C1F00FFFFFFFFFFFFFFFFFFFFB59600621104DD
:103C2F0019041105190508C44A8BB5B6EF5DBDF728
:103C3F00FFFF6B8E006242295AAA4208FFFFFFFF67
:103C4F0052CC088311041104110408A352ADFFFFD5
:103C5F00FFFFFFFFFFFFFFFFFFFFFFFFFFFFFFFF65
:103C6F00E71CFFFFFFFFFFFFFFFF634E0062110422
:103C7F001104110410E40062638EFFFFFFFFFFFFCA
:103C8F00FFFF73CF00019CF3632CB596FFFFFFFF7F
:103C9F005B2D008311041104110410E42167EF3D23
:103CAF00FFFFFFFFFFFFFFFFFFFFBDF8B5B7EF9E61
:103CBF0052CB94B3FFFFFFFFFFDF31E808A31104DE
:103CCF0011041104110408A34249F7FFF7FFFFFF86
:103CDF00FFFF4A6A00018472FFFFFFFFF7FFEFDF6C
:103CEF003A0908A311041104110411041105BE1897
:103CFF00FFFFFFFFFFFFFFFFFFFF7BF0006231E8D9
:103D0F0031C70041A535FFFFEF5D214610C41104F7
:103D1F0011041104110410E408A39D76F7FFFFFFAF
:103D2F00ADB708A308A331C7E79EF7FFF7FFA57646
:103D3F0008A310E411041104110411051105A53590
:103D4F00FFFFFFFFFFFFFFFFFFFFDEDB29A7008362
:103D5F0010C410C410C4E71CEF9E110510E4110429
:103D6F00110411041104190408C410E56BD16BD1AF
:103D7F0008C5006408A50043322B9D7784B319252D
:103D8F0010C41104110411041104192509269D35BD
:103D9F00FFFFFFFFFFFFFFFFFFFFFFFF73AF00629C
:103DAF001904190500825B0D9B8E10621105110419
:103DBF001104190410E40085110539C45A817B40A0
:103DCF009C22AC43A4039B837282498218C200A435
:103DDF0000C510E4190411041905194711675AECAD
:103DEF00FFBEFFFFFFFFFFFFFFFFFFDFDEDB10C4A4
:103DFF0010E41104110518A4C001888300E419050B
:103E0F00190408C521448343D523FE42FEE4FF274E
:103E1F00FF07FEA4FE64FE03FDA3FCE2EC42B383A6
:103E2F00622410E508C41904192619A821879000E7
:103E3F00BCD3FFFFFFFFFFFFFFFFFFDFFFFF7C1084
:103E4F000042190511052883D001F84448A300E466
:103E5F0008C55A44ED02FDE2FE02FE66FF74FFB88C
:103E6F00FF73F6E7F6A6F645F5A4FCC3FC62FCC2A9
:103E7F00FCC2CBE349C411061988018790A4F8014D
:103E8F009AECFFFFFFFFFFFFFFFFFFFFFFFFF7BEF4
:103E9F0031E8008309054082C001F823F08548A36B
:103EAF0000A45A44FD02CC23DCC2FE04FE28F648CF
:103EBF00F646F624F5E4FD64FCE3FC62FCC2E40282
:103ECF00DC02FCE27AA40148016778C4F824F80206
:103EDF00B084E77DFFFFFFFFFFFFFFFFFFFFFFFF47
:103EEF00DEDB192500A338C4E002D822F844F8A677
:103EFF0078A400632143728339839B82F521FD618E
:103F0F00FD22FCE2FCA2FC42FC42FC42AB224183BC
:103F1F0092C352040126192598A4F844F823F802F5
:103F2F00D0A4EF9EFFFFFFFFFFFFFFFFFFFFFFFF8D
:103F3F00FFFFD69A298700A5B843F822E023F8653A
:103F4F00F8E8C9074883004200A3008429637AA2D6
:103F5F00B362CBA2D362BB028A82398300A400E58D
:103F6F0000E508E560C4D864F844F824F823F802A3
:103F7F008883C6DBFFFFFFFFFFFFFFFFFFFFFFFF92
:103F8F00FFFFFFFFE73D5B503108E823F843F044A4
:103F9F00F865F909F9ABD189890648A318420002DF
:103FAF0000420061008200620062008320A350C4BF
:103FBF0088A5D885F865F844F844F823F823D0038A
:103FCF00108229C7EF5DFFFFFFFFFFFFFFFFFFFF1E
:103FDF00FFFFFFFFFFFFFFFF326C38A5D802F8236A
:103FEF00F865F866F8A7F94AFA0CFA4DEA4CD20BC5
:103FFF00B9A9B168A947B127B907D107E8E7F8C749
:10400F00F8A7F865F865F844F823F803D00228A359
:10401F00090508C45AECFFFFFFFFFFFFFFFFFFFF7B
:10402F00FFFFFFFFFFFFDEFB190500C441A7C0E63E
:10403F00F803F886F8A7F887F886F8C7F929F98AF8
:10404F00F9ABF9ABF98BF96AF929F908F8C7F8A6B2
:10405F00F886F865F864F823F002B106292500E424
:10406F0010E4192519259D14FFFFFFFFFFFFFFFF28
:10407F00FFFFFFFFFFFFAD96006208829535CEBAB6
:10408F00A28BD044F825F887F8A7F8C7F8A7F887C8
:10409F00F886F886F886F887F8A7F8A7F8A6F885BF
:1040AF00F865F864F024B864930DB6BB63CF08834A
:1040BF00110410E421663A49EF5DFFFFFFFFFFFF98
:1040CF00FFFFFFFFFFFF94D3004210E4CEBBFFFFC3
:1040DF00E7BEB576AACCC107E045F845F846F866C5
:1040EF00F886F886F886F886F865F845F865E86585
:1040FF00D044A84388019082D73CEFFF95550883A1
:10410F00110411041905194694B3FFFFFFFFFFFFB8
:10411F00FFFFFFFFFFFF94B300412186DF5DFFFF2D
:10412F00FFFFFFFFE7DFC67AB4D3B34EC22AD168D1
:10413F00E0E6E8A6E8A5E8A5D8E6C988A906A8227A
:10414F00A802A000C800D800E5F7E7FFADF810C43B
:10415F0010E4110410E411054A8BFFFFFFFFFFFF6E
:10416F00FFFFFFFFFFFFA555004129A7DF5DF7FF09
:10417F00FFFFFFFFFFFFFFFFFFFFEFFFDF7DCEDB47
:10418F00CE59CDF8CDD7C5F7CE79BEFBA2ABF00394
:10419F00F845D042E843F000D472DFFFAE3910E4A7
:1041AF0010E4110410E411052987FFFFFFFFFFFF43
:1041BF00FFFFFFFFFFFFCE5908832146D71CF7FFF4
:1041CF00FFFFFFFFFFFFFFFFFFFFFFFFFFFFFFFFF0
:1041DF00FFFFFFFFFFFFFFFFFFFFEFFFBA8BF804AB
:1041EF00F845E062F044F800DB8EDFFFA5F810C45D
:1041FF0010E410E4110410E41925FFFFFFFFFFFF87
:10420F00FFFFFFFFFFFFF7BE29870883B639F7FFD0
:10421F00F7DFFFFFFFFFFFFFFFFFFFFFFFFFFFFFC7
:10422F00FFFFFFFFFFFFFFFFFFFFE7BEBA4AF803E5
:10423F00F845F864F844F800E36ED7FF8CF4088370
:10424F00110410E410E410E41905FFFFFFFFFFFF56
:10425F00FFFFFFFFFFFFFFFF73EF00008472EFFF11
:10426F00EFBEFFDFFFFFFFFFFFFFFFFFFFFFFFFFC0
:10427F00FFFFFFFFFFFFFFFFFFFFE7DFBA8BF80333
:10428F00F845F845F823F800D4D3D7FF5B4E00214B
:10429F003A29A555088310C41925FFFFFFFFFFFF1B
:1042AF00FFFFFFFFFFFFFFFFDEFB08A331E8DF9EED
:1042BF00E79EEFBFFFFFFFFFFFFFFFFFFFFFFFFFC8
:1042CF00FFFFFFFFFFFFFFFFFFFFF7FFBC51E00204
:1042DF00F803F003E043C2ECCF7EBEFC2146002181
:1042EF0094D3FFFF845100002987FFFFFFFFFFFFDB
:1042FF00FFFFFFFFFFFFFFFFFFFF845100008CF464
:10430F00EFFFE79EEFBFFFDFFFFFFFFFFFFFFFFFA7
:10431F00FFFFFFFFFFFFFFFFFFFFFFFFDF3DBD556C
:10432F00BC52BC72B5B7C75DDFFF6BF000003A0936
:10433F00F7BFFFFFFFFF9D14A555FFFFFFFFFFFF17
:10434F00FFFFFFFFFFFFFFFFFFFFFFFF4AAC08A4C8
:10435F00BEBBE7DFE77EEFBEF7DFFFDFFFFFFFFF4D
:10436F00FFFFFFFFFFFFFFFFFFFFFFDFF7DFEFFFA6
:10437F00DFDFD7BFD79EDFDFA5D808831126D6DBB7
:10438F00FFFFFFFFFFFFFFFFFFFFFFFFFFFFFFFF2E
:10439F00FFFFFFFFFFFFFFFFFFFFEE79DC8B3121F8
:1043AF0021A9CF3DDFBFDF7EE79EEFBEEFBFF7DF77
:1043BF00F7DFF7DFF7DFF7DFEFBFEFBEE79EDF7E59
:1043CF00D75ED75EDFDFB69A19260842A3EDFFBF8F
:1043DF00FFFFFFFFFFFFFFFFFFFFFFFFFFFFFFFFDE
:1043EF00FFFFFFFFFFFFFFFFDD74DBC0FE00EE42AC
:1043FF0042022189B67BDFDFD77EDF7EDF7EE79E3D
:10440F00E79EE79EE79EE79EDF7EDF7ED75DD75D67
:10441F00DF9EE7FFA5F8110718E3C502FD60D3E69D
:10442F00EEDBFFFFFFFFFFFFFFFFFFFFFFFFFFFFC2
:10443F00FFFFFFFFFFFFF79EBA84FCC1FE42FE8223
:10444F00FEA2838121457474C75EDFDFD77ED75EFE
:10445F00D75DD75ED75ED75DD75DD75EDF9EE7FFAF
:10446F00C73D63F108845242E626FF29FE86F3E03A
:10447F00C36AFFFFFFFFFFFFFFFFFFFFFFFFFFFF0E
:10448F00FFFFFFFFFFFFDE18D2C1FDA2FE22FE429B
:10449F00FE42FE62D4E26A4142497453A63BC73ED4
:1044AF00D7BFD7BFD7BFDFBFD7BFC73EA61A63F2ED
:1044BF0029A74182B422FE62FE83FEAAFF0FFD6789
:1044CF00BA63EF3CFFFFFFFFFFFFFFFFFFFFFFFFA1
:1044DF00FFFFFFFFFFFFE69AD280FD21FDC2F5E24D
:1044EF00F5C2F582FD82FD62DC619B216A846AE977
:1044FF00632C63AF7411636E632C5A8952047A81F3
:10450F00CBC2FCE2FD62FD82FDC2FDC2FDE4FD24D3
:10451F00CA62E71CFFFFFFFFFFFFFFFFFFFFFFFF69
:10452F00FFFFFFFFFFFFFFFFCCB1D281F3C0FCC144
:10453F00FD02FD02FCE2FCC2FCC2FC81FB80C9C093
:10454F0081A4AD35CE599C718121DA00FBA1FC828B
:10455F00FCA2FC82FCA2FD02FD22FCE2FC00DA6060
:10456F00CC90FFFFFFFFFFFFFFFFFFFFFFFFFFFFEE
:10457F00FFFFFFFFFFFFFFFFFFFFDE59C40DCB065D
:10458F00D2E4DB03DB03DAE3D2C3C2A4B309BCD2A8
:10459F00F79EFFFFFFFFFFFFE6FBB40EBAA6D28325
:1045AF00E2E3EB02EB22E322DB03D2E4C36AD5B6EC
:0A45BF00FFFFFFFFFFFFFFFFFFFFFC
:105889009000021249ED0000000012602E90000CF9
:10589900E4F0A374F0F074FFA3F0A3F07BF07A00B6
:1058A900E4FDFCFFFE12636E7BFF7A39791F9000DD
:1058B9000D74F8F0A3E4F074FFA3F0A3F0A374202F
:1058C900F0E4A3F0FDFCFFFE125C0B7BFF7A397953
:1058D9002A90000D74F8F0A3E4F074FFA3F0A3F08C
:1058E900A37410F0E4A3F07D28FCFFFE12641A9063
:1058F900000C7403F0A374F8F0A3E4F074FFA3F0B0
:10590900A3F0A37410F07BF07A007D287C007F302F
:105919007E0012615C7BFF7A39793190000D74F851
:10592900F0A3E4F074FFA3F0A3F0A37410F0E4A3D0
:10593900F07D28FC7F50FE12641A90000C7403F06D
:10594900A374F8F0A3E4F074FFA3F0A3F0A3741018
:10595900F07BF07A007D287C007F807E0012615CFC
:105969007BFF7A39793190000D74F8F0A3E4F07473
:10597900FFA3F0A3F0A37410F0E4A3F07D28FC7F4B
:1059890050FE12641A7BFF7A39793890000D74F849
:10599900F0A3E4F074FFA3F0A3F0A37410F0E4A360
:1059A900F07D46FCFFFE12641A900002E0FCA3E0C1
:1059B900FDA3E0FEA3E0FF90000A1249E190000E6A
:1059C9007404F0A374F8F0A3E4F074FFA3F0A3F057
:1059D900A37410F07D467C007F807E00125EE49007
:1059E9000002E0FCA3E0FDA3E0FEA3E0FF7BAE7AAA
:1059F9004779E1783D1245D09000021249E1E490DF
:105A09000001F0E4900000F0900000E0FFC394066C
:105A19005041EF75F028A4FFAEF0C006C007A3E01F
:105A290075F028A42478FDE435F0FC90000CE4F02E
:105A3900A37428F0A374FFF0A37439F0A37449F098
:105A4900D007D0067B287A00125D96900000E0040A
:105A5900F080B5900001E004F0E0C3940340A40293
:025A690058B132
:046589007F647E00AD
:10658D00EF4E60157D087C07ED1DAA0470011C4AB5
:09659D0070F6EF1F70EA1E80E7A2
:0165A60022D2
:1065A700E4FEC290EF30E704D2918002C291D2900C
:0965B700EF25E0FF0EEEB408E947
:0165C00022B8
:0A65D4001265ED7FD01265DE7F0432
:0365DE000265A7AC
:0565C100E0FEA3E0FF75
:0E65C600AD07AC06ECFF1265A7AF050265A796
:0865ED00C2931265A7D29322AC
:10655400900034EEF0A3EFF0A3ECF0A3EDF07F2A6B
:106564001265ED9000341265C1AF03AE021265C628
:106574007F2B1265EDA31265C190003A1265C17FAD
:056584002C1265ED2260
:10602E00C292126589D292126589D2941265897FC5
:10603E00111265ED7F787E0012658D7F361265ED4B
:10604E00E4FF1265DE7F3A1265ED7F051265DE7F95
:10605E00B21265ED7F0C1265DE7F0C1265DEE4FF79
:10606E001265DE7F331265DE7F331265DE7FB71277
:10607E0065ED7F351265DE7FBB1265ED7F1912650A
:10608E00DE7FC01265ED7F2C1265DE7FC21265EDDC
:10609E007F011265DE7FC31265ED7F121265DE7F12
:1060AE00C41265ED7F201265DE7FC61265ED7F0F8F
:1060BE001265DE7FD01265ED7FA41265DE7FA11220
:1060CE0065DE7FE01265D47F0D1265DE7F111265ED
:1060DE00DE7F131265DE7F2B1265DE7F3F1265DEDB
:1060EE007F541265DE7F4C1265DE7F181265DE7FEF
:1060FE000D1265DE7F0B1265DE7F1F1265DE7F23BC
:10610E001265DE7FE11265D47F0C1265DE7F1112FF
:10611E0065DE7F131265DE7F2C1265DE7F3F126512
:10612E00DE7F441265DE7F511265DE7F2F1265DE43
:10613E007F1F1265DE7F1F1265DE7F201265DE7FF8
:0E614E00231265DE7F211265ED7F290265EDCB
:1000030000000000000000000000000000000404E5
:10001300040404000004000014140A00000000009B
:100023000000000000000A0A1F0A0A1F0A0A000053
:1000330000040E1505060C14150E0400000012151D
:100043000D152E2C2A1200000000040A0A3615157D
:100053002916000002020100000000000000000059
:100063001008080404040404080810000204040827
:10007300080808080404020000000004150E0E1509
:100083000400000000000008083E0808000000000B
:100093000000000000000000020201000000000058
:1000A300003F00000000000000000000000000000E
:1000B30000020000002010100808040402020100DE
:1000C30000000E1111111111110E000000000406A1
:1000D30004040404040E000000000E1111080402BD
:1000E300011F000000000E11100C1010110E000073
:1000F3000000080C0C0A091F081C000000001F0167
:10010300010F1110110E000000000C12010D13114C
:10011300110E000000001E1008080404040400006F
:1001230000000E11110E1111110E000000000E112E
:100133001119161009060000000000000400000059
:10014300000400000000000000040000000404009C
:100153000000100804020204081000000000000060
:100163003F003F00000000000000020408101008D8
:100173000402000000000E11110804040004000032
:1001830000001C22292D2D1D221C00000000040448
:100193000C0A0A1E1233000000000F12120E121274
:1001A300120F000000001E1101010101110E0000D9
:1001B30000000F1212121212120F000000001F1281
:1001C3000A0E0A02121F000000001F120A0E0A0282
:1001D3000207000000001C1201013911120C00007B
:1001E30000003312121E12121233000000001F040B
:1001F30004040404041F000000003E080808080863
:1002030008080907000037120A060A12123700000D
:100213000000070202020202223F000000003B1B13
:100223001B1B15151535000000003B1216161A1A74
:100233001217000000000E1111111111110E000010
:1002430000000F12120E02020207000000000E113E
:1002530011111117190E180000000F12120E0A12B5
:100263001237000000001E1101060810110F0000D4
:1002730000001F1504040404040E000000003312E0
:1002830012121212120C000000003312120A0A0C8E
:10029300040400000000151515150E0A0A0A0000D3
:1002A30000001B0A0A04040A0A1B000000001B0AC0
:1002B3000A0A0404040E000000001F0908040402D3
:1002C300121F00001C0404040404040404041C009E
:1002D3000002020404040808081010000E080808AD
:1002E3000808080808080E00040A000000000000BF
:1002F3000000000000000000000000000000003FBC
:1003030002040000000000000000000000000000E4
:10031300000C121C123C000000030202020E121217
:10032300120E000000000000001C1202120C00005C
:1003330000181010101C1212123C000000000000E4
:10034300000C121E021C000000182404041E0404E6
:10035300041E000000000000003C120C021C221CC2
:1003630000030202020E12121237000000040400FE
:1003730000060404040E000000080800000C08082E
:100383000808080700030202021A0A060A130000FB
:100393000007040404040404041F00000000000018
:1003A300000F15151515000000000000000F1212B4
:1003B3001237000000000000000C1212120C0000A3
:1003C30000000000000F1212120E020700000000CE
:1003D300001C1212121C103800000000001B060241
:1003E3000207000000000000001E020C101E0000A7
:1003F30000000004041E0404041C000000000000AC
:10040300001B1212123C000000000000001B0A0A2D
:1004130004040000000000000015150E0A0A000085
:1004230000000000001B0A040A1B0000000000007B
:10043300003312120C08040300000000001E08041D
:10044300041E000018080808080C0808080818000B
:100453000808080808080808080808080604040427
:100463000408040404040600160900000000000048
:100473000000000000000000000000000000000079
:100483000000000000000008080808080808000031
:100493001818000000486C2412000000000000003F
:1004A300000000000000002424247F1212127F1297
:1004B300121200000000081C2A2A0A0C1828282AF5
:1004C3002A1C080800000022251515152A58545423
:1004D300542200000000000C1212120A7625291182
:1004E300916E0000000606040300000000000000F7
:1004F3000000000000402010100808080808081039
:1005030010204000000204080810101010101008FA
:10051300080402000000000008086B1C1C6B08089C
:100523000000000000000000080808087F08080811
:1005330008000000000000000000000000000000B0
:10054300060604030000000000000000FE00000097
:100553000000000000000000000000000000000098
:100563000606000000008040402020101008080408
:100573000402020000000018244242424242424266
:1005830024180000000000080E08080808080808DE
:10059300083E00000000003C4242422020100804B4
:1005A300427E00000000003C4242201820404042AE
:1005B300221C0000000000203028242422227E2058
:1005C300207800000000007E0202021A264040420A
:1005D300221C0000000000382402021A2642424274
:1005E300241800000000007E2222101008080808CA
:1005F300080800000000003C424242241824424202
:10060300423C00000000001824424242645840402B
:10061300241C000000000000000018180000000067
:10062300181800000000000000000008000000008F
:100633000008080400000040201008040204081009
:10064300204000000000000000007F0000007F0049
:1006530000000000000000020408102040201008E1
:10066300040200000000003C4242464020101000FB
:10067300181800000000001C225A555555552D42EC
:10068300221C00000000000808181414243C224215
:1006930042E700000000001F2222221E22424242A3
:1006A300221F00000000007C4242010101010142BF
:1006B300221C00000000001F2242424242424242EA
:1006C300221F00000000003F4212121E12120242BB
:1006D300423F00000000003F4212121E12120202AB
:1006E300020700000000003C2222010101712122C7
:1006F300221C0000000000E7424242427E42424286
:1007030042E700000000003E08080808080808083F
:10071300083E00000000007C101010101010101094
:100723001010110F0000007722120A0E0A12122273
:100733002277000000000007020202020202020206
:10074300427F000000000077363636362A2A2A2AEE
:100753002A6B0000000000E346464A4A52525262A6
:10076300624700000000001C2241414141414141D8
:10077300221C00000000003F424242423E020202AD
:10078300020700000000001C2241414141414D533A
:10079300321C60000000003F4242423E12122222FD
:1007A30042C700000000007C42420204182040427D
:1007B300423E00000000007F4908080808080808B6
:1007C300081C0000000000E742424242424242420B
:1007D300423C0000000000E7424222242414141883
:1007E300080800000000006B494949495555362265
:1007F30022220000000000E74224241818182424B1
:1008030042E70000000000772222141408080808B9
:10081300081C00000000007E212010100804044280
:10082300423F00000078080808080808080808087C
:1008330008087800000002020404080808101020C9
:1008430020204040001E1010101010101010101027
:1008530010101E00003844000000000000000000DB
:100863000000000000000000000000000000000085
:10087300000000FF00060800000000000000000068
:1008830000000000000000000000003C42784442E9
:1008930042FC0000000000030202021A2642424208
:1008A300261A000000000000000000384402020283
:1008B3004438000000000060404040784442424217
:1008C30064D80000000000000000003C427E0202E9
:1008D300423C0000000000F08808087E0808080871
:1008E300083E0000000000000000007C22221C02E1
:1008F3003C42423C000000030202023A46424242AA
:1009030042E700000000000C0C00000E0808080875
:10091300083E000000000030300000382020202076
:100923002020221E0000000302020272120A161285
:10093300227700000000000E0808080808080808CD
:10094300083E0000000000000000007F9292929297
:1009530092B70000000000000000003B4642424204
:1009630042E70000000000000000003C4242424217
:10097300423C0000000000000000001B26424242EF
:10098300221E020700000000000000784442424299
:10099300447840E000000000000000774C040404A9
:1009A300041F0000000000000000007C42023C40E5
:1009B300423E0000000000000008083E0808080846
:1009C3000830000000000000000000634242424281
:1009D30062DC000000000000000000E74224241451
:1009E3000808000000000000000000EB49495555CD
:1009F30022220000000000000000007624181818CE
:100A0300246E000000000000000000E742242414CC
:100A130018080807000000000000007E22100808E4
:100A2300447E000000C02020202020102020202011
:100A33002020C000101010101010101010101010F3
:100A43001010101000060808080808100808080805
:100A5300080806000C32C20000000000000000007D
:100A63000000000000000000000000000000000083
:100A73000000000000000000000000000000000073
:100A83000000000000000000000000000000000063
:100A93000000000000000000000000006000600093
:100AA30060006000600060006000400020002000E3
:100AB30020000000000000006000600060000000F3
:100AC300000000000000000060066006300398018B
:100AD3008800440000000000000000000000000047
:100AE3000000000000000000000000000000000003
:100AF30000000000000000000000000010021002CF
:100B030010021002FE07FE0708020801080108018F
:100B13000801FE07FE0704010401040104010000AB
:100B23000000000000000000000040004000F00151
:100B330058034C03CC034C0058007000E000C00184
:100B4300C00140034C035C034C034801F000400028
:100B53004000000000000000000000000E010A0138
:100B6300910091009100510051003A00AE03A002A0
:100B730050045004480448044804840284030000D9
:100B830000000000000000000000000038006C00BE
:100B93006C006C006C006C002C0098071C011A019F
:100BA300330133016301E300C308C6093C070000B6
:100BB30000000000000000000C001C0010001000EA
:100BC3000800040000000000000000000000000016
:100BD3000000000000000000000000000000000012
:100BE300000000000000000000040002000180007B
:100BF3008000400040002000200020002000200052
:100C0300200020004000400080008000000100021E
:100C130000040000000000000200040008001000AF
:100C23001000200020004000400040004000400031
:100C330040004000200020001000100008000400C5
:100C4300020000000000000000000000000000009F
:100C53004000C0004000460C4E0FD001F0015E0F73
:100C6300460C40004000400000000000000000006F
:100C73000000000000000000000000000000000071
:100C8300000040004000400040004000FE0F4000D4
:100C93004000400040004000000000000000000051
:100CA3000000000000000000000000000000000041
:100CB3000000000000000000000000000000000031
:100CC30000000000000000000C001C0010001000D9
:100CD3000800040000000000000000000000000005
:100CE300000000000000000000000000FE070000FC
:100CF30000000000000000000000000000000000F1
:100D030000000000000000000000000000000000E0
:100D130000000000000000000000000000000000D0
:100D230000000000000000001C001C001C0000006C
:100D330000000000000000000004000600020003A1
:100D4300000100018000800040004000600020009E
:100D5300200010001000080008000C00040006002A
:100D63000200000000000000000000000000F0008E
:100D730098010C030C03060606060606060606067D
:100D83000606060606060C030C039801F000000095
:100D93000000000000000000000000000000400010
:100DA3007C00600060006000600060006000600024
:100DB300600060006000600060006000FC030000F1
:100DC3000000000000000000000000000000F80028
:100DD3008401020306030603000300018001C0002F
:100DE300600020001000080204020602FE03000057
:100DF3000000000000000000000000000000780078
:100E0300C6008601860180018001C0007000800158
:100E1300000100030003060306038601F800000037
:100E2300000000000000000000000000000080013E
:100E33008001C001A001A001900188018801840103
:100E43008201FE0F8001800180018001E007000024
:100E53000000000000000000000000000000FC0390
:100E630004000400040004000400F4008C010403E3
:100E7300000300030603060382018401F800000057
:100E83000000000000000000000000000000E0017E
:100E930018030C030C0004000600E60116030E06FB
:100EA30006060606060604060C021803F0000000F8
:100EB3000000000000000000000000000000F80730
:100EC3000C060402040100010001800080004000C0
:100ED30040004000600060006000600060000000AF
:100EE3000000000000000000000000000000F80106
:100EF3000C030606060606060C021C03F000C801D6
:100F03000C0306060606060606060C03F00100009F
:100F13000000000000000000000000000000F000DE
:100F23000C010C03060206060606060606078C06D7
:100F330078060006000300030C018C017800000012
:100F4300000000000000000000000000000000009E
:100F53000000000000000000E000E000E0000000EE
:100F63000000000000000000E000E000E0000000DE
:100F7300000000000000000000000000000000006E
:100F8300000000000000000060006000000000009E
:100F9300000000000000000000006000600040004E
:100FA30020002000000000000000000000040002F8
:100FB3000001800040002000100008000400080029
:100FC3001000200040008000000100020004000027
:100FD300000000000000000000000000000000000E
:100FE3000000000000000000FE07000000000000F9
:100FF300FE070000000000000000000000000000E9
:1010030000000000000000000000000004000800D1
:1010130010002000400080000001000200040002D4
:1010230000018000400020001000080004000000C0
:101033000000000000000000000000000000E003CA
:101043001806040C040C0C0C0C0C00078001400067
:101053004000400000000000E000E000E00000006D
:10106300000000000000000000000000E000180382
:101073000C02CC0564056605A605B604B604B604E1
:10108300B604B602E4010C040C021803F0000000DD
:1010930000000000000000000000000000006000ED
:1010A30060005000D0009000900088008801080183
:1010B300F801040304030402020202060F0F0000F6
:1010C3000000000000000000000000000000FE001F
:1010D3008C030C030C030C030C038C01FC000C03AA
:1010E3000C020C060C060C060C060C03FE01000099
:1010F3000000000000000000000000000000E0030A
:1011030018030C060C04040406000600060006007F
:101113000600060006040C040C021803F00000008D
:1011230000000000000000000000000000007F003D
:101133008C010C030C030C060C060C060C060C06A7
:101143000C060C060C060C030C038C017F0000003C
:101153000000000000000000000000000000FF038A
:10116300060306040604060086008600FE008600C9
:10117300860086000600060406040602FF0300003C
:101183000000000000000000000000000000FF035A
:10119300060306040604060086008600FE00860099
:1011A3008600860006000600060006001F000000F9
:1011B3000000000000000000000000000000F0003C
:1011C30018010C020C0204020600060006000600C9
:1011D300C60F060306030C030C031803F0000000FC
:1011E30000000000000000000000000000000F0FDE
:1011F300060606060606060606060606FE07060693
:101203000606060606060606060606060F0F000075
:101213000000000000000000000000000000FC03CC
:1012230060006000600060006000600060006000BB
:10123300600060006000600060006000FC0300006C
:101243000000000000000000000000000000F8079C
:10125300C000C000C000C000C000C000C000C0008B
:10126300C000C000C000C000C000C000C000C60075
:1012730066003C0000000000000000000000CF03F7
:101283008601C60046002600160036002E006E00BA
:101293004600C60086008601060106038F0700008C
:1012A30000000000000000000000000000001F001C
:1012B30006000600060006000600060006000600FB
:1012C300060006000600060406040602FF030000EB
:1012D30000000000000000000000000000000707FD
:1012E300860386038E038E034E034E034A035A037B
:1012F3005A033A033203320332031203870700000F
:1013030000000000000000000000000000008E0F3D
:101313000C021C021C023402340264026402440202
:10132300C402840284038403040304031F02000031
:101333000000000000000000000000000000F000BA
:1013430098010C030C0206060606060606060606A8
:101353000606060606060C020C039801F0000000C0
:101363000000000000000000000000000000FF007B
:101373000603060606060606060606068603FE009E
:101383000600060006000600060006001F00000017
:101393000000000000000000000000000000F0005A
:1013A30098010C030C020606060606060606060648
:1013B3000606060676064C02CC039801F000800769
:1013C3000003000000000000000000000000FF0117
:1013D300060306060606060606060603FE00460084
:1013E300C600860086010603060306060F0E0000EC
:1013F3000000000000000000000000000000F802F0
:101403000C030602060206000E003C00F800E0038F
:10141300800300070206020606060C03F001000023
:101423000000000000000000000000000000FE07B4
:101433006204610861086000600060006000600091
:10144300600060006000600060006000F801000060
:1014530000000000000000000000000000001E0764
:101463000C020C020C020C020C020C020C020C0209
:101473000C020C020C020C020C021801F00000001A
:1014830000000000000000000000000000000F0743
:101493000602040104010C010C0188008800980075
:1014A3009800500050007000300020002000000021
:1014B3000000000000000000000000000000F70E24
:1014C300620442044604460464026402E402E40241
:1014D3009C029C0198019801880188008800000003
:1014E30000000000000000000000000000009E0754
:1014F3000C01080118019000B0006000200060009A
:101503006000D00090008801080104038E070000EA
:1015130000000000000000000000000000000F0FAA
:10152300060404020C0208011801B800B0007000A0
:10153300600060006000600060006000F80100006F
:101543000000000000000000000000000000FC0795
:101553000C020603020180018000400040002000CD
:1015630020001000180008040C040402FE0300000D
:101573000000000000000000E00320002000200025
:101583002000200020002000200020002000200058
:101593002000200020002000200020002000200048
:1015A300E00300000000000000000000040004004D
:1015B3000800080010001000100020002000400068
:1015C3004000C00080008000000100010002000212
:1015D30000020004000000007C00400040004000C6
:1015E30040004000400040004000400040004000F8
:1015F30040004000400040004000400040004000E8
:101603007C00000000006000900008010000000062
:1016130000000000000000000000000000000000C7
:1016230000000000000000000000000000000000B7
:1016330000000000000000000000000000000000A7
:101643000000000000000000000000000000000097
:101653000000000000000000000000000000000087
:101663000000FF0F000000001800600000000000F1
:101673000000000000000000000000000000000067
:101683000000000000000000000000000000000057
:101693000000000000000000000000000000000047
:1016A3000000000000000000F0010C030C03000325
:1016B300E0031C030E03060306038E0B7C0E0000DF
:1016C30000000000000000000000000008000E0001
:1016D3000C000C000C000C00CC013C031C060C0697
:1016E3000C060C060C060C060C021C03E40100009D
:1016F30000000000000000000000000000000000E7
:101703000000000000000000F0008C018C01860145
:1017130006000600060006020C020C01F0000000A1
:101723000000000000000000000000000002C003F1
:10173300000300030003000378038C030C03060378
:10174300060306030603060304038C07780100005F
:101753000000000000000000000000000000000086
:101763000000000000000000E001180308020C065E
:101773000C06FC070C000C0018041802E001000022
:101783000000000000000000000000000000C00393
:101793006006300630003000FE01300030003000BB
:1017A300300030003000300030003000FC01000019
:1017B3000000000000000000000000000000000026
:1017C3000000000000000000F007D8068C018C0127
:1017D3008C019801F8000C00FC00CC0306030603FF
:1017E3008E03F800000000000000000008000E0057
:1017F3000C000C000C000C00EC011C030C030C038C
:101803000C030C030C030C030C030C039E070000D6
:101813000000000000000000000000000000600065
:1018230060000000000040007C0060006000600079
:10183300600060006000600060006000FC03000066
:101843000000000000000000000000000000C001D4
:10185300C001000000000001F0018001800180014F
:10186300800180018001800180018001800180016D
:10187300CC007C00000000000000000008000E0007
:101883000C000C000C000C008C038C008C004C0032
:101893006C005C008C008C010C010C039E070000A3
:1018A30000000000000000000000000040007C0079
:1018B3006000600060006000600060006000600025
:1018C300600060006000600060006000FC030000D6
:1018D3000000000000000000000000000000000005
:1018E30000000000000000003707EE0666066606EB
:1018F300660666066606660666066606FF0F00004F
:1019030000000000000000000000000000000000D4
:101913000000000000000000EE011C030C030C0398
:101923000C030C030C030C030C030C039E070000B5
:1019330000000000000000000000000000000000A4
:101943000000000000000000F00098010C030606F0
:1019530006060606060606060C030C03F000000046
:101963000000000000000000000000000000000074
:101973000000000000000000EE011C030C060C0632
:101983000C060C060C060C060C031C03EC010C00E5
:101993000C003E00000000000000000000000000FA
:1019A300000000000000000078028C030C03060313
:1019B300060306030603060304038C0378030003EC
:1019C3000003C0070000000000000000000000004A
:1019D30000000000000000009F03580638061800AE
:1019E300180018001800180018001800FF00000065
:1019F30000000000000000000000000000000000E4
:101A03000000000000000000F0031C030C020C02A5
:101A13003800F000C003040304038C03FC0100003E
:101A230000000000000000000000000000000000B3
:101A33002000200030003000FE0130003000300074
:101A4300300030003000300030023002E00100008E
:101A53000000000000000000000000000000000083
:101A630000000000000008028E030C030C030C03AB
:101A73000C030C030C030C030C039C0778010000FC
:101A83000000000000000000000000000000000053
:101A930000000000000000001E070C0208010801FE
:101AA30018019000B000B00060006000200000004A
:101AB3000000000000000000000000000000000023
:101AC3000000000000000000F70E620446046402F8
:101AD3006402EC029C01980198019801080000003F
:101AE30000000000000000000000000000000000F3
:101AF3000000000000000000BC0718011001B00046
:101B030060006000E0009000080108039E070000E9
:101B130000000000000000000000000000000000C2
:101B230000000000000000009E07080108010801F2
:101B330090009000B0006000600060002000200072
:101B430024001C0000000000000000000000000052
:101B53000000000000000000FC018401C4004400F8
:101B6300600020003000180208020C03FC01000092
:101B730000000000000000000003800080008000DF
:101B83008000800080008000800040002000400032
:101B93008000800080008000800080008000800042
:101BA30000030000400040004000400040004000AF
:101BB3004000400040004000400040004000400022
:101BC3004000400040004000400040004000400012
:101BD30040004000000000000C0010001000100046
:101BE3001000100010001000100020004000200022
:101BF3001000100010001000100010001000100062
:101C03000C00000000001C002204C204800300003A
:101C130000000000000000000000000000000000C1
:101C230000000000000000000000000000000000B1
:101C330000000000000000000000000000000000A1
:101C43000000000000000000000000000000000091
:101C53000000000000000000000000000000000081
:101C63000000000000000000000000000000000071
:101C73000000000000000000000000000000C001A0
:101C8300C001C001C001C001C001C00180008000CB
:101C930080008000800080008000000000000000C1
:101CA30000008001C003C0038001000000000000A9
:101CB30000000000000000000000E01CE01CF01E1B
:101CC300700E3807180308018400000000000000AC
:101CD3000000000000000000000000000000000001
:101CE30000000000000000000000000000000000F1
:101CF30000000000000000000000000000000000E1
:101D030020102010201020102010FE7FFE7F1008CE
:101D1300100810081008100810081008FE7FFE7F36
:101D23000804080408040804080400000000000074
:101D3300000000000000000000000000000100019E
:101D4300C00760191031183118391839380170017A
:101D5300E001C0038007000F001D003900311C3172
:101D63001C310C310C11180DE007000100010001BA
:101D73000000000000000000000000000000000060
:101D83001C1036186308630C630463046302630264
:101D93006301361D9C378022806340634063206368
:101DA3002063306310221836081C00000000000076
:101DB3000000000000000000000000000000000020
:101DC300F00098018C018C018C018C018C00CC00FB
:101DD3007800183E1C083608320863046304C30401
:101DE300C303834306438E26781C000000000000D3
:101DF300000000000000000000001C003C003C004C
:101E03003000300010000C0006000000000000004D
:101E130000000000000000000000000000000000BF
:101E230000000000000000000000000000000000AF
:101E3300000000000000000000000040002000102F
:101E43000008000C000400060003000300038001E7
:101E530080018001800180018001800180010003F5
:101E63000003000300060006000C00080010002019
:101E73000040000000000000000002000400080011
:101E83001000300020006000C000C000C0008001CE
:101E93008001800180018001800180018001C000F8
:101EA300C000C000600060003000100008000400A3
:101EB300020000000000000000000000000000001D
:101EC3000000000000018003800300011C713C79C5
:101ED300783DC0070001C007783D3C791C710001C3
:101EE3008003800380010000000000000000000068
:101EF30000000000000000000000000000000000DF
:101F030000000000000000010001000100010001C9
:101F130000010001FC7F000100010001000100013C
:101F230000010001000000000000000000000000AC
:101F3300000000000000000000000000000000009E
:101F4300000000000000000000000000000000008E
:101F5300000000000000000000000000000000007E
:101F6300000000001C003C003C003000300010006A
:101F73000C0006000000000000000000000000004C
:101F8300000000000000000000000000000000004E
:101F930000000000FE7F00000000000000000000C1
:101FA300000000000000000000000000000000002E
:101FB300000000000000000000000000000000001E
:101FC300000000000000000000000000000000000E
:101FD30000000000000000000000000000000000FE
:101FE300000018003C003C00180000000000000046
:101FF300000000000000000000000040006000201E
:102003000030001000180008000C00040006000255
:102013000003000180018000C00040006000200038
:1020230030001000180008000C0004000600020035
:10203300000000000000000000000000000000009D
:10204300C007600C30181830183018200C600C6072
:102053000C600C600C600C600C600C600C60182051
:10206300183018303018600CC00700000000000062
:10207300000000000000000000000000000000005D
:1020830000018001F801800180018001800180014D
:102093008001800180018001800180018001800135
:1020A300800180018001C003F81F000000000000D0
:1020B300000000000000000000000000000000001D
:1020C300E007101C0818043004300C300C300030CA
:1020D30000180008000400020001800040002020D6
:1020E300102008200430FC1FFC1F0000000000002B
:1020F30000000000000000000000000000000000DD
:10210300E003180E0C0C0C180C180C180018000C1B
:102113000006C003000E00180010003000300C3021
:102123000C300C100C18180CE00300000000000029
:10213300000000000000000000000000000000009C
:10214300000C000E000E000F800E800E400E600E7D
:10215300200E100E100E080E040E040EFE7F000E4D
:10216300000E000E000E000E000EC07F00000000E7
:10217300000000000000000000000000000000005C
:10218300F03FF03F10001000100008000800C807DF
:10219300280C1818081000300030003000300C30C4
:1021A3000C3004180418080CF003000000000000B1
:1021B300000000000000000000000000000000001C
:1021C300800FC010203010301800180008000C00D9
:1021D3008C0F6C183C301C600C600C600C600C6045
:1021E3001860182030306018C0070000000000009D
:1021F30000000000000000000000000000000000DC
:10220300F83FF83F1C100C08040804040004000203
:102213000002000100010001800080008000C00076
:10222300C000C000C000C000C000000000000000EB
:10223300000000000000000000000000000000009B
:10224300E007300C18180C300C300C301C303818E8
:102253007008E007B007180E0C1C0638063006306D
:10226300063006300C18180CE003000000000000D4
:10227300000000000000000000000000000000005B
:10228300E00318040C080C1806100630063006305C
:10229300063006380C3C1836F031003000180018B0
:1022A30000180C0C0C060C03F001000000000000E9
:1022B300000000000000000000000000000000001B
:1022C300000000000000000000000000000080018A
:1022D300C003C003800100000000000000000000F4
:1022E30000008001C003C003800100000000000063
:1022F30000000000000000000000000000000000DB
:102303000000000000000000000000000000C0000A
:10231300C0000000000000000000000000000000FA
:10232300000000000000C000C000800080004000EA
:10233300400000000000000000000000000000203A
:10234300001000080004000600038001C0006000C4
:10235300300018000C00180030006000C00080013D
:102363000003000600040008001000200000000025
:10237300000000000000000000000000000000005A
:102383000000000000000000000000000000FE7FCD
:1023930000000000000000000000FE7F00000000BD
:1023A300000000000000000000000000000000002A
:1023B3000000000000000000000000000000040016
:1023C3000800100020006000C00080010003000628
:1023D300000C001800300018000C000600038001F8
:1023E300C00060002000100008000400000000008E
:1023F3000000000000000000000000000000C00713
:102403003018083008600C601C601C601C600030D1
:10241300001C000600018000800080008000000096
:1024230000008001C003C003800100000000000021
:102433000000000000000000000000000000000099
:10244300C0076018103018200C2F8C4D864CC64CDA
:10245300C64C664C66446644662666266615CC1CE6
:102463000C40082018303018C0070000000000009E
:102473000000000000000000000000000000000158
:10248300C001C001C00140016003200320032003F9
:102493003006100610061006F80F080C080C080C7E
:1024A3000C0C0418041806181F7C00000000000020
:1024B3000000000000000000000000000000000019
:1024C300FE07181C18381830183018301830181830
:1024D300180CF807181818301820186018601860BE
:1024E3001860186018301818FE0F00000000000074
:1024F30000000000000000000000000000000000D9
:10250300C0276038103018200C400C40040006002F
:1025130006000600060006000600060006000C4042
:102523000C400C2018303018C007000000000000D9
:102533000000000000000000000000000000000098
:10254300FE03180E18181830183018301860186069
:1025530018601860186018601860186018601830E8
:10256300183018101818180EFE03000000000000A1
:102573000000000000000000000000000000000058
:10258300FE3F183018201860184018001808180863
:10259300180CF80F180C1808180818001800180061
:1025A3001840184018201830FE3F000000000000BB
:1025B3000000000000000000000000000000000018
:1025C300FE7F1870184018C01880180018101810D3
:1025D3001818F81F181818101810180018001800E9
:1025E30018001800180018007E000000000000000A
:1025F30000000000000000000000000000000000D8
:10260300C013701C101018100C200C2004000600BE
:10261300060006000600060006FC063006300C30F5
:102623000C30183018303008C007000000000000DC
:102633000000000000000000000000000000000097
:102643003F7E0C180C180C180C180C180C180C18CE
:102653000C180C18FC1F0C180C180C180C180C1860
:102663000C180C180C180C183F7E0000000000001A
:102673000000000000000000000000000000000057
:10268300F81F8001800180018001800180018001A9
:10269300800180018001800180018001800180012F
:1026A3008001800180018001F81F0000000000000C
:1026B3000000000000000000000000000000000017
:1026C300E07F00060006000600060006000600067E
:1026D30000060006000600060006000600060006C7
:1026E3000006000600060006000600060E060E039E
:1026F3008E01FC000000000000000000000000004C
:102703007E7C181818081804180618021801980176
:102713009801D801B803380318071806180E180CC7
:10272300181C1818183018307EFC00000000000038
:102733000000000000000000000000000000000096
:102743007E00180018001800180018001800180060
:1027530018001800180018001800180018001800B6
:102763001840184018201830FE3F000000000000F9
:102773000000000000000000000000000000000056
:102783001FF81C381C381C381C3C343434343434A3
:10279300343674326432643264326431C431C431E5
:1027A300C431C430C43084309FFC000000000000FA
:1027B3000000000000000000000000000000000016
:1027C3001F7C1C103C103410341074106410E4107F
:1027D300C410C41184118413041304170416041EB3
:1027E300041C041C041C04181F1800000000000033
:1027F30000000000000000000000000000000000D6
:10280300C003300C181808100C300C30066006603A
:1028130006600660066006600660066006600C20BF
:102823000C3008101818300CC00300000000000022
:102833000000000000000000000000000000000095
:10284300FE0F1818183018601860186018601860A8
:1028530018301818F80F180018001800180018007E
:1028630018001800180018007E0000000000000087
:102873000000000000000000000000000000000055
:10288300C003300C18180C100C300C2006600660C6
:102893000660066006600660066006600660E46126
:1028A3002C331C321816300EC007004C007C003845
:1028B3000000000000000000000000000000000015
:1028C300FE07181C1838183018301830183018182C
:1028D300180CF80798031803180718061806180E9B
:1028E300180C180C181C18187E7800000000000043
:1028F30000000000000000000000000000000000D5
:10290300E027303818300C200C200C000C00180085
:102913007800E003800F001E003800700060046040
:102923000460086018303818C80F00000000000069
:102933000000000000000000000000000000000094
:10294300FC3F8C21846182418241800180018001AE
:10295300800180018001800180018001800180016C
:102963008001800180018001E00700000000000079
:102973000000000000000000000000000000000054
:102983003F7C0C100C100C100C100C100C100C10C5
:102993000C100C100C100C100C100C100C100C1054
:1029A3000C100C1008083804E003000000000000BD
:1029B3000000000000000000000000000000000014
:1029C3003EF8182018201820301030103010301026
:1029D300600860086008E00CC004C004C004800301
:1029E3008003800380030001000100000000000059
:1029F30000000000000000000000000000000000D4
:102A0300DFF38661862186218C210C218C238C1394
:102A13008C138C134C1358125816580E380E380E4C
:102A2300380E300C100410041004000000000000E5
:102A33000000000000000000000000000000000093
:102A43007E3E180838083004300470026002E0014A
:102A5300C001C00180018003400340072006200617
:102A6300100C100C081808183E7C00000000000031
:102A73000000000000000000000000000000000053
:102A83007E7C1C10181018083008300C7004600489
:102A93006002C002C002C001800180018001800188
:102AA3008001800180018001E00700000000000038
:102AB3000000000000000000000000000000000013
:102AC300F83F18180818040C040E0006000700034A
:102AD30080038001C001C000E0006000700030008E
:102AE300382018201C100C18FE1F000000000000E6
:102AF30000000000000000000000C03F4000400054
:102B030040004000400040004000400040004000C2
:102B130040004000400040004000400040004000B2
:102B23004000400040004000400040004000C03FE3
:102B3300000000000000000000000000000008008A
:102B430018001800100030002000600060004000F2
:102B5300C000800080018001000100030002000624
:102B630000060004000C00080018001800100030D4
:102B730000200000000000000000FC03000200022F
:102B83000002000200020002000200020002000232
:102B93000002000200020002000200020002000222
:102BA3000002000200020002000200020002FC0315
:102BB300000000000000000000008007C00620089D
:102BC30010100000000000000000000000000000E2
:102BD30000000000000000000000000000000000F2
:102BE30000000000000000000000000000000000E2
:102BF30000000000000000000000000000000000D2
:102C030000000000000000000000000000000000C1
:102C130000000000000000000000000000000000B1
:102C230000000000000000000000000000000000A1
:102C33000000FFFF0000000000007800C00000015A
:102C43000000000000000000000000000000000081
:102C53000000000000000000000000000000000071
:102C63000000000000000000000000000000000061
:102C73000000000000000000000000000000000051
:102C83000000000000000000000000000000F0034E
:102C930018060C0C0C0C000C800F700C1C0C0C0C8C
:102CA300060C060C064C0C4FF83800000000000020
:102CB3000000000000000000000000000000100001
:102CC3001E00180018001800180018001800180F2C
:102CD300D8183830386018601860186018601860A9
:102CE3001860182038307818C8070000000000006A
:102CF30000000000000000000000000000000000D1
:102D03000000000000000000000000000000C007F9
:102D1300700C181818180C180C000C000C000C0080
:102D23000C20182018103008C00700000000000015
:102D33000000000000000000000000000000001080
:102D4300001E001800180018001800180018E01BD7
:102D5300301C181818180C180C180C180C180C1810
:102D63000C180818181C307AE00900000000000055
:102D73000000000000000000000000000000000050
:102D83000000000000000000000000000000C00779
:102D9300300C181808100C300C30FC3F0C000C00E1
:102DA3000C00182018107018C00700000000000065
:102DB3000000000000000000000000000000000010
:102DC300003E80C380C0C0C0C000C000C000FC1F64
:102DD300C000C000C000C000C000C000C000C000F0
:102DE300C000C000C000C000F80F000000000000D9
:102DF30000000000000000000000000000000000D0
:102E03000000000000000000000000000000C07788
:102E1300306C10181818181818181018300CF00700
:102E230018001800F00FF03F08700C600C600C6085
:102E33003838E00F00000000000000000000100020
:102E43001E00180018001800180018001800980F2A
:102E5300D818383018301830183018301830183067
:102E630018301830183018307EFC000000000000C5
:102E7300000000000000000000000000000000004F
:102E83008003800380030000000000000001F801BC
:102E93008001800180018001800180018001800127
:102EA3008001800180018001F81F00000000000004
:102EB300000000000000000000000000000000000F
:102EC3000038003800380000000000000010801FA8
:102ED300001800180018001800180018001800182F
:102EE3000018001800180018001800180018180C13
:102EF3001806F003000000000000000000001000AE
:102F03001E00180018001800180018001800183EBA
:102F1300180C1806180318019801D801380318076C
:102F23001806180C181C18187E7C000000000000FE
:102F3300000000000000000000000000000000018D
:102F4300F8018001800180018001800180018001FE
:102F53008001800180018001800180018001800166
:102F63008001800180018001F81F00000000000043
:102F7300000000000000000000000000000000004E
:102F83000000000000000000000000000800EE1C2C
:102F93009C338C318C318C318C318C318C318C3134
:102FA3008C318C318C318C31DE7B000000000000D1
:102FB300000000000000000000000000000000000E
:102FC30000000000000000000000000010001E0FC1
:102FD300D8183830183018301830183018301830E6
:102FE30018301830183018307EFC00000000000044
:102FF30000000000000000000000000000000000CE
:103003000000000000000000000000000000C007F6
:10301300701C103018300C600C600C600C600C607D
:103023000C60183018303018C00700000000000092
:10303300000000000000000000000000000000008D
:1030430000000000000000000000000010009E0FC0
:103053005818383018201860186018601860186005
:1030630018601830383078189807180018001800BE
:1030730018007E00000000000000000000000000B7
:103083000000000000000000000000000000C0235A
:10309300303C183818300C300C300C300C300C30FD
:1030A3000C3008301838303CE0330030003000304A
:1030B300003000FC000000000000000000000000E1
:1030C30000000000000000000000000060007E3CE3
:1030D30060666061E000E000600060006000600026
:1030E3006000600060006000FE0700000000000058
:1030F30000000000000000000000000000000000CD
:103103000000000000000000000000000000E027B5
:1031130030381830182018007000E003800F001CAE
:10312300043004300C301C18EC0F000000000000C9
:10313300000000000000000000000000000000008C
:1031430000000000800080008000C000E000FC1F41
:10315300C000C000C000C000C000C000C000C0006C
:10316300C000C020C0208011000F0000000000003C
:10317300000000000000000000000000000000004C
:1031830000000000000000000000000010201E3CB2
:1031930018301830183018301830183018301830EC
:1031A30018301830183830F4E01300000000000025
:1031B300000000000000000000000000000000000C
:1031C30000000000000000000000000000007E3C42
:1031D30018181808380830043004700260026002BE
:1031E300E001C001C001C000800000000000000039
:1031F30000000000000000000000000000000000CC
:103203000000000000000000000000000000DFF7E5
:103213008E630C238C238C239813981358165816FB
:10322300700E700E700E20042004000000000000D9
:10323300000000000000000000000000000000008B
:103243000000000000000000000000000000FC3E41
:1032530070087004E004C002C001800380034007CB
:103263006006200C100C18183E7E000000000000C1
:10327300000000000000000000000000000000004B
:1032830000000000000000000000000000007E7C41
:103293001818180830083008300460046004C002AD
:1032A300C002C00280018001800180008000800094
:1032B3004C003C0000000000000000000000000083
:1032C3000000000000000000000000000000FC1FE0
:1032D3000C0C040E0406000380038001C000E00010
:1032E3007020302038301C18FC1F00000000000044
:1032F300000000000000000000000030000800048F
:10330300000400040004000400040004000400049A
:103313000004000280010002000400040004000411
:103323000004000400040004000400040004000876
:103333000030000000010001000100010001000154
:103343000001000100010001000100010001000172
:103353000001000100010001000100010001000162
:103363000001000100010001000100010001000152
:10337300000100010000000000000C00100020000C
:10338300200020002000200020002000200020003A
:103393002000400080014000200020002000200089
:1033A300200020002000200020002000200010002A
:1033B3000C00000000003800C400864002610022B7
:1033C300001C0000000000000000000000000000DE
:1033D30000000000000000000000000000000000EA
:1033E30000000000000000000000000000000000DA
:1033F30000000000D6D0200020002000FE0322029F
:1034030022022202FE032202200020002000BEB07E
:10341300FC010401FC010401FC012000FF0704017D
:10342300FC01200024013202D4B0FE070204FA0496
:1034330002040204FE05520452044A0586050204EE
:10344300FE07B5E710001000FF0111011101FF0194
:1034530011011101FF0111041004E007D7D300008B
:10346300FC018000400020002000FF072000200016
:10347300200020003800D6D080008000800080002B
:10348300FC1F84108410841084108410FC1F84108B
:103493008000800080008000BEB0F80F0808F80F9D
:1034A3000808F80F8000FF7F0000F80F08080808DD
:1034B300F80F80008410A2204000D4B00000FE3F2B
:1034C3000220F22702200220FA2F22212221222188
:1034D300122912290A2E0220FE3F0220B5E780009E
:1034E30080008000FC1F841084108410FC1F841053
:1034F30084108410FC1F845080408040007FD7D309
:103503000000FE1F00080004000280018000FF7F0E
:10351300800080008000800080008000A0004000C8
:10352300D6D00000000000000018000008000008CA
:1035330000000800080818F8FF1F180818180818D2
:10354300180818180818180818180818F8FF1F087A
:103553000808000800000800000800000800001820
:1035630000001800001800000000BEB000000000BA
:103573000000400006C0FF07400006C0FF074000F0
:1035830006C0FF07400802003000FEFF3F000000B6
:10359300C0FF07C00002C00002C00002C0FF0380DA
:1035A300100080110160100E3010180C1E30001C2A
:1035B30000000000D4B0000000000000080030F854
:1035C300FF1F08001008C010083F10080010080073
:1035D30010080013C8FF1008221008221008221038
:1035E30008221008211208211488601648C01328E5
:1035F3000010080010F8FF1F080010000000B5E7D6
:10360300000000000000001800000800000800008F
:103613000800F0FF0F100804100804100804100835
:1036230004F0FF071008041008041008041008042D
:10363300F0FF071008000008100008100008200021
:10364300183000F01F000000D7D300000000000076
:10365300000004F0FF0F00000600000100C000009E
:103663002800001800001800001830FEFF7F001823
:1036730000001800001800001800001800001800CF
:10368300001800001800001800001F00000C0000C4
:103693000000D6D000000000000000000080000001
:1036A3000080010000800100008001000080010013
:1036B300008001001080010CF0FFFF0F3080010437
:1036C3003080010430800104308001043080010423
:1036D300308001043080010430800104F0FFFF07D3
:1036E300308001043080010400800100008001006B
:1036F30000800100008001000080010000800100C3
:1037030000800100008001000080010000800000B3
:1037130000000000BEB00000000000000000000038
:1037230000000001800100FFFF010003800100038E
:10373300800100FFFF01000380010003800100FFFF
:10374300FF0100818100000003000000031CFCFF57
:10375300FF3F000040000003C00100FFFF01000322
:10376300C0000003C0000003C00000FFFF00000111
:10377300410000040100000E710000078101800177
:1037830001076000010E1898011C04E0011800C035
:10379300000000000000D4B00000000000000000A2
:1037A30000000008F0FFFF1F3000000C3000000C89
:1037B3003000100C30FE3F0C3004000C3000000CC5
:1037C3003000000C3000000C3000C00CF0FFFF0D87
:1037D3003030060E3030060C3010060C3010060C5C
:1037E3003010060C3018860C3018860C3008060D85
:1037F300300C860D3006EE0F3002FC0D3001000C4C
:10380300F000000C3000000CF0FFFF0F3000000C44
:103813001000000400000000B5E7000000000000F5
:10382300000000C0000000C0010000C0000000C094
:10383300000000C0000000C00000E0FFFF0360C004
:10384300000360C0000360C0000360C0000360C0E9
:10385300000360C00003E0FFFF0360C0000360C01B
:10386300000360C0000360C0000360C00003E0FF0A
:10387300FF0360C0000160C0000000C0000800C07A
:10388300001000C0001000C0001800C00138008004
:10389300FF1F0000000000000000D7D3000000005D
:1038A300000000000000000000000003C0FFFF074D
:1038B300000080070000C000000060000000180046
:1038C30000000C0000800300008003000080010062
:1038D300008001080080011CFCFFFF3F0080010005
:1038E30000800100008001000080010000800100D1
:1038F30000800100008001000080010000800100C1
:1039030000800100008001000080010000FC010034
:0C39130000E00000004000000000000088
:10636E00900006EEF0A3EFF0A3ECF0A3EDF0A3EA9D
:04637E00F0A3EBF0AD
:10638200C006C00724FFFBEA34FFFAA3E0FEA3E045
:1063920024FFFFEE34FF90003AF0A3EFF0D007D0D5
:1063A20006126554900008E0FFA3E0900010CFF0C1
:1063B200A3EFF090000CE0FEA3E0FFC3900011E019
:1063C2009F900010E09E504F900006E0FFA3E090E7
:1063D2000012CFF0A3EFF090000AE0FEA3E0FFC3AB
:1063E200900013E09F900012E09E501B90000EE080
:1063F200FEA3E0FF1265C6900013E004F070D8908F
:106402000012E004F080D0900011E004F070A4903B
:076412000010E004F0809C83
:016419002260
:1064A400900061FEE0FCA3E0FDC390005DE09DFD73
:0E64B40090005CE09CFC90005FE0FAA3E0FB2F
:1064C20090002EEEF0A3EFF0900032EAF0A3EBF092
:1064D200900030ECF0A3EDF090002EE0FAA3E0FB88
:1064E200FFAE02C007A3E0FFA3E090003ACFF0A303
:1064F200EFF0D007126554900032E0FEA3E0FF02F5
:0265020065C66C
:0E569B0090003CEEF0A3EFF0A3ECF0A3EDF0D6
:1056A900E4900048F0A3F0A3F0A3F090003CE0FEE2
:1056B900A3E0FFC3EB9FFFEA9E90004CF0A3EFF03D
:1056C90090003EE0FAA3E0FBC3900043E09BFE900C
:1056D9000042E09A90004EF0A3CEF090003CE0FF2B
:1056E900A3E0900056CFF0A3EFF0A3EAF0A3EBF00C
:1056F90090004CE0FEA3E0FFD39400EE6480948018
:10570900400A900052E4F0A304F08021EF4E7008A3
:10571900900052F0A3F0801574FF900052F0A3F0AE
:10572900C3E49FFFE49E90004CF0A3EFF090004E7D
:10573900E0FEA3E0FFD39400EE64809480400A90D9
:105749000054E4F0A304F08021EF4E700890005457
:10575900F0A3F0801574FF900054F0A3F0C3E49F08
:10576900FFE49E90004EF0A3EFF090004EE0FEA300
:10577900E0FF90004CE0FCA3E0FDD39FEE6480F8CD
:10578900EC6480989000504007ECF0A3EDF08005A0
:10579900EEF0A3EFF0E4900046F0A3F0900051E0A2
:1057A9002401FF900050E03400FEC3900047E09FC1
:1057B900900046E09E4003025888900056E0FEA300
:1057C900E0FFA3E0FCA3E0FD9000441264BD90005B
:1057D9004CE0FEA3E0FF900049E02FF0900048E084
:1057E9003EF090004EE0FEA3E0FF90004BE02FF06A
:1057F90090004AE03EF0900050E0FEA3E0FF9000E8
:1058090048E0FCA3E0FDD39FEE6480F8EC64809847
:105819004020ED9FFFEC9E900048F0A3EFF0900030
:1058290052E0FEA3E0FF900057E02FF0900056E011
:105839003EF0900050E0FEA3E0FF90004AE0FCA398
:10584900E0FDD39FEE6480F8EC6480984020ED9FE2
:10585900FFEC9E90004AF0A3EFF0900054E0FEA305
:10586900E0FF900059E02FF0900058E03EF09000E2
:0F58790047E004F07006900046E004F00257A5E7
:0158880022FD
:10628800900069EAF0A3EBF0900065EEF0A3EFF060
:10629800A3ECF0A3EDF0C007A3E0FAA3E0FB9000A5
:1062A80067E0FFA3E0900042CFF0A3EFF090006D0D
:1062B800E0FFA3E0900044CFF0A3EFF0D007125620
:1062C8009B900065E0FAA3E0FBFFAE02C007A3E0E5
:1062D800FCA3E0FD90006BE0FFA3E0900042CFF04C
:1062E800A3EFF090006DE0FFA3E0900044CFF0A38F
:1062F800EFF0D00712569B90006BE0FCA3E0FD90F6
:106308000069E0FAA3E0FBA3E0FFA3E0900042CF1E
:10631800F0A3EFF090006DE0FFA3E0900044CFF011
:10632800A3EFF0900065E0FEA3E0FF12569B9000FB
:1063380069E0FAA3E0FBFFAE02C007900067E0FC4B
:10634800A3E0FD90006BE0FFA3E0900042CFF0A334
:10635800EFF090006DE0FFA3E0900044CFF0A3EFD2
:06636800F0D00702569B75
:105A6B0090005AEEF0A3EFF0A3ECF0A3EDF0A3EB54
:015A7B00F03A
:105A7C00E4900061F0A3F0EBFFA3E4F0A3EFF0904F
:105A8C000063E0FEA3E0FFD3900062E09FEE648031
:105A9C00F8900061E06480984003025C0AC39000B7
:105AAC005BE09FFF90005AE09E1264A4900063E0BC
:105ABC00FEA3E0FF90005BE02FFF90005AE03E1247
:105ACC0064A4900061E0FEA3E0FFC390005BE09F44
:105ADC00FF90005AE09EFE900063E0FCA3E0FD9076
:105AEC00005DE02DFD90005CE03C1264B99000611B
:105AFC00E0FEA3E0FFC390005BE09FFF90005AE044
:105B0C009E9000631264A7900063E0FEA3E0FF90F8
:105B1C00005BE02FFF90005AE03EFE900061E0FC3D
:105B2C00A3E0FD90005DE02DFD90005CE03C126474
:105B3C00B9900061E0FEA3E0FF90005BE02FFF90C6
:105B4C00005AE03EFE9000631264A8900061E0FEF3
:105B5C00A3E0FF90005BE02FFF90005AE03EFE9028
:105B6C000063E0FCA3E0FD90005DE02DFD90005C87
:105B7C00E03C1264B9900063E0FEA3E0FFC3900028
:105B8C005BE09FFF90005AE09EFE900061E0FCA35A
:105B9C00E0FD90005DE02DFD90005CE03C1264B9EE
:105BAC00900062E004F07006900061E004F0900058
:105BBC0063E0FCA3E0FDFFAE0412488EAA06AB071F
:105BCC00900061E0FCA3E0FDFFAE0412488EEF2BC9
:105BDC00FDEE3AFC90005EE0F5F0A4FFD3ED9FE5FE
:105BEC00F06480F8EC6480985003025A8B90006447
:0E5BFC00E024FFF0900063E034FFF0025A8BCB
:015C0A002277
:105C0B00900006EEF0A3EFF0A3ECF0A3EDF0A3EB06
:105C1B00F0A3EAF0A3E9F090000AE0FBA3E0FAA3FB
:105C2B00E0F91248487003025D95900011E0640C96
:105C3B007044900008E0FCA3E0FD90000DE0FFA392
:105C4B00E090001ACFF0A3EFF090000FE0FFA3E07D
:105C5B0090001CCFF0A3EFF0900011E090001EF02D
:105C6B00900012E090001FF0900006E0FEA3E0FF12
:105C7B00124F36025D76900011E06410704B90006D
:105C8B0008E0FCA3E0FDA3E0FBA3E0FAA3E0F9A38B
:105C9B00E0FFA3E090001ACFF0A3EFF090000FE02D
:105CAB00FFA3E090001CCFF0A3EFF0900011E09069
:105CBB00001EF0900012E090001FF0900006E0FE36
:105CCB00A3E0FF1251BA025D76900011E0641870E8
:105CDB004A900008E0FCA3E0FDA3E0FBA3E0FAA3DD
:105CEB00E0F9A3E0FFA3E090001ACFF0A3EFF09050
:105CFB00000FE0FFA3E090001CCFF0A3EFF09000AB
:105D0B0011E090001EF0900012E090001FF0900048
:105D1B0006E0FEA3E0FF124A2A8050900011E064D7
:105D2B00207067900008E0FCA3E0FDA3E0FBA3E07C
:105D3B00FAA3E0F9A3E0FFA3E090001ACFF0A3EFE2
:105D4B00F090000FE0FFA3E090001CCFF0A3EFF06A
:105D5B00900011E090001EF0900012E090001FF0F8
:105D6B00900006E0FEA3E0FF124CB090000BE47530
:105D7B00F0021248A0900011E0FF900007E02FF016
:0B5D8B00900006E03400F0025C2222D1
:104F3600900015ECF0A3EDF0A3EBF0A3EAF0A3E9E3
:094F4600F0900013EEF0A3EFF06F
:104F4F00E4900022F0900029EEF0A3EFF090001E05
:104F5F00E0FF131313541FFD7C00EF54077E006016
:104F6F00047F0180027F00EF2DFFEE3CFE90001EBC
:104F7F00E0FD7C0012488E900027EEF0A3EFF0903A
:104F8F000025E4F0A37405F0E4900023F0A3F09063
:104F9F000025E0FEA3E0FF900023E0FCA3E0FDC3AB
:104FAF009FEC9E40030251B9900017E0FBA3E0FA7B
:104FBF00A3E0F9124848FF9033F775F01AED124A43
:104FCF001EEC75F01AA42583F583E4936F6003023A
:104FDF0051A8900001124861FF900023A3E0903385
:104FEF00F875F01A124A1EEC75F01AA42583F58392
:104FFF00E4936F60030251A8900015E0FCA3E0FD5D
:10500F0090001EE0F9FF7E00900013E0FAA3E02F5E
:10501F00FFEE3ACF24FFFBEF34FFFAE9FFA3E0F8EE
:10502F00A3E02FFFEE38CF24FFCF34FF90003AF0EC
:10503F00A3EFF0900013E0FEA3E0FF126554E4909D
:10504F000020F0900020E0FFD3900028E09F900018
:10505F0027E0940050030251A8E4900021F0900043
:10506F001FE07077900023A3E075F01AA424F9F5E0
:10507F0082E43433F583C083C082900020E0D08275
:10508F00D0832582F582E43583F583E493FD7C009C
:10509F00900021E0FF74017E00A807088005C3334C
:1050AF00CE33CED8F9FFEE5CFEEF5D4E600590007B
:1050BF001A800390001CE0FEA3E0FF1265C690006B
:1050CF0022E004F090001EE0FF900022E08FF084B9
:1050DF00E5F06003025190F002519F900023A3E08E
:1050EF0075F01AA424F9F582E43433F583C083C034
:1050FF0082900020E0D082D0832582F582E4358330
:10510F00F583E493FD7C00900021E0FF74017E00A5
:10511F00A807088005C333CE33CED8F9FFEE5CFE67
:10512F00EF5D4E6014900013E0FEA3E0FFA3E0FCE0
:10513F00A3E0FD90001A1264BD900014E004F0701B
:10514F0006900013E004F0900029E0FEA3E0FFC3F7
:10515F00900014E09FFD900013E09EFC90001EE075
:10516F007A00B5051CEAB50418900013EEF0A3EF12
:10517F00F0900016E004F07017900015E004F08036
:10518F000F900021E004F0E0C39408500302506D2B
:10519F00900020E004F0025052900024E004F070E0
:0A51AF0006900023E004F0024F9E7A
:0151B90022D3
:1051BA00900015ECF0A3EDF0A3EBF0A3EAF0A3E95D
:0951CA00F0900013EEF0A3EFF0E9
:1051D300E4900022F0900029EEF0A3EFF090001E7F
:1051E300E0FF131313541FFD7C00EF54077E006090
:1051F300047F0180027F00EF2DFFEE3CFE90001E36
:10520300E0FD7C0012488E900027EEF0A3EFF090B3
:105213000025E4F0A37405F0E4900023F0A3F090DC
:105223000025E0FEA3E0FF900023E0FCA3E0FDC324
:105233009FEC9E400302543D900017E0FBA3E0FA6D
:10524300A3E0F9124848FF90347975F022ED124A31
:105253001EEC75F022A42583F583E4936F600302AB
:10526300542C900001124861FF900023A3E0903476
:105273007A75F022124A1EEC75F022A42583F58379
:10528300E4936F600302542C900015E0FCA3E0FD4F
:1052930090001EE0F9FF7E00900013E0FAA3E02FD8
:1052A300FFEE3ACF24FFFBEF34FFFAE9FFA3E0F868
:1052B300A3E02FFFEE38CF24FFCF34FF90003AF066
:1052C300A3EFF0900013E0FEA3E0FF126554E49017
:1052D3000020F0900020E0FFD3900028E09F900092
:1052E30027E09400500302542CE4900021F0900036
:1052F3001FE07077900023A3E075F022A4247BF5D0
:1053030082E43434F583C083C082900020E0D082ED
:10531300D0832582F582E43583F583E493FD7C0015
:10532300900021E0FF74017E00A807088005C333C5
:10533300CE33CED8F9FFEE5CFEEF5D4E60059000F4
:105343001A800390001CE0FEA3E0FF1265C69000E4
:1053530022E004F090001EE0FF900022E08FF08432
:10536300E5F06003025414F0025423900023A3E0F9
:1053730075F022A4247BF582E43434F583C083C022
:1053830082900020E0D082D0832582F582E43583A9
:10539300F583E493FD7C00900021E0FF74017E001F
:1053A300A807088005C333CE33CED8F9FFEE5CFEE1
:1053B300EF5D4E6014900013E0FEA3E0FFA3E0FC5A
:1053C300A3E0FD90001A1264BD900014E004F07095
:1053D30006900013E004F0900029E0FEA3E0FFC371
:1053E300900014E09FFD900013E09EFC90001EE0EF
:1053F3007A00B5051CEAB50418900013EEF0A3EF8C
:10540300F0900016E004F07017900015E004F080AF
:105413000F900021E004F0E0C3940850030252F11E
:10542300900020E004F00252D6900024E004F070D3
:0A54330006900023E004F00252226C
:01543D00224C
:104A2A00900015ECF0A3EDF0A3EBF0A3EAF0A3E9F4
:094A3A00F0900013EEF0A3EFF080
:104A4300E4900022F0900029EEF0A3EFF090001E16
:104A5300E0FF131313541FFD7C00EF54077E006027
:104A6300047F0180027F00EF2DFFEE3CFE90001ECD
:104A7300E0FD7C0012488E900027EEF0A3EFF0904B
:104A83000025E4F0A37405F0E4900023F0A3F09074
:104A93000025E0FEA3E0FF900023E0FCA3E0FDC3BC
:104AA3009FEC9E4003024CAF900017E0FBA3E0FA9B
:104AB300A3E0F9124848FF90352375F04AED124AF6
:104AC3001EEC75F04AA42583F583E4936F6003021B
:104AD3004C9E900001124861FF900023A3E09035A3
:104AE3002475F04A124A1EEC75F04AA42583F58317
:104AF300E4936F6003024C9E900015E0FCA3E0FD7D
:104B030090001EE0F9FF7E00900013E0FAA3E02F6F
:104B1300FFEE3ACF24FFFBEF34FFFAE9FFA3E0F8FF
:104B2300A3E02FFFEE38CF24FFCF34FF90003AF0FD
:104B3300A3EFF0900013E0FEA3E0FF126554E490AE
:104B43000020F0900020E0FFD3900028E09F900029
:104B530027E094005003024C9EE4900021F0900063
:104B630021E0FFC394084003024C9590001FE070BE
:104B730071A3E0FE900023E0FCA3E090352575F0DF
:104B83004A124A1EEC75F04AA42583F583E5822E6A
:104B9300F582E43583F583E493FD7C0074017E00A4
:104BA300A807088005C333CE33CED8F9FFEE5CFEE9
:104BB300EF5D4E600590001A800390001CE0FEA399
:104BC300E0FF1265C6900022E004F090001EE0FFB3
:104BD300900022E08FF084E5F06003024C8CF00239
:104BE3004C95900020E0FF900023E0FCA3E090357B
:104BF3002575F04A124A1EEC75F04AA42583F58305
:104C0300E5822FF582E43583F583E493FD7C009000
:104C13000021E0FF74017E00A807088005C333CE9E
:104C230033CED8F9FFEE5CFEEF5D4E6014900013B7
:104C3300E0FEA3E0FFA3E0FCA3E0FD90001A1264F2
:104C4300BD900014E004F07006900013E004F090AF
:104C53000029E0FEA3E0FFC3900014E09FFD900055
:104C630013E09EFC90001EE07A00B5051CEAB50433
:104C730018900013EEF0A3EFF0900016E004F0702C
:104C830011900015E004F08009900021E004F00287
:104C93004B61900020E004F0024B46900024E004B6
:0C4CA300F07006900023E004F0024A923A
:014CAF0022E2
:104CB000900015ECF0A3EDF0A3EBF0A3EAF0A3E96C
:094CC000F0900013EEF0A3EFF0F8
:104CC900E4900022F0900029EEF0A3EFF090001E8E
:104CD900E0FF131313541FFD7C00EF54077E00609F
:104CE900047F0180027F00EF2DFFEE3CFE90001E45
:104CF900E0FD7C0012488E900027EEF0A3EFF090C3
:104D09000025E4F0A37405F0E4900023F0A3F090EB
:104D19000025E0FEA3E0FF900023E0FCA3E0FDC333
:104D29009FEC9E4003024F35900017E0FBA3E0FA89
:104D3900A3E0F9124848FF90369575F082ED124AC2
:104D49001EEC75F082A42583F583E4936F6003025A
:104D59004F24900001124861FF900023A3E0903690
:104D69009675F082124A1EEC75F082A42583F583AC
:104D7900E4936F6003024F24900015E0FCA3E0FD6B
:104D890090001EE0F9FF7E00900013E0FAA3E02FE7
:104D9900FFEE3ACF24FFFBEF34FFFAE9FFA3E0F877
:104DA900A3E02FFFEE38CF24FFCF34FF90003AF075
:104DB900A3EFF0900013E0FEA3E0FF126554E49026
:104DC9000020F0900020E0FFD3900028E09F9000A1
:104DD90027E094005003024F24E4900021F0900052
:104DE90021E0FFC394084003024F1B90001FE070AD
:104DF90071A3E0FE900023E0FCA3E090369775F0E4
:104E090082124A1EEC75F082A42583F583E5822E71
:104E1900F582E43583F583E493FD7C0074017E001B
:104E2900A807088005C333CE33CED8F9FFEE5CFE60
:104E3900EF5D4E600590001A800390001CE0FEA310
:104E4900E0FF1265C6900022E004F090001EE0FF2A
:104E5900900022E08FF084E5F06003024F12F00227
:104E69004F1B900020E0FF900023E0FCA3E0903668
:104E79009775F082124A1EEC75F082A42583F5839A
:104E8900E5822FF582E43583F583E493FD7C009078
:104E99000021E0FF74017E00A807088005C333CE16
:104EA90033CED8F9FFEE5CFEEF5D4E60149000132F
:104EB900E0FEA3E0FFA3E0FCA3E0FD90001A12646A
:104EC900BD900014E004F07006900013E004F09027
:104ED9000029E0FEA3E0FFC3900014E09FFD9000CD
:104EE90013E09EFC90001EE07A00B5051CEAB504AB
:104EF90018900013EEF0A3EFF0900016E004F070A4
:104F090011900015E004F08009900021E004F002FE
:104F19004DE7900020E004F0024DCC900024E0041D
:0C4F2900F07006900023E004F0024D1828
:014F35002259
:10543E0090001BECF0A3EDF0A3EBF0900019EEF052
:03544E00A3EFF0D9
:10545100E4900027F090002CEEF0A3EFF0900022F2
:10546100E0F9C313900025F0E0FF131313541FFD5F
:105471007C00EF54077E0060047F0180027F00EF13
:105481002DFFEE3CFEE9FD7C0012488E90002AEED5
:10549100F0A3EFF090001DE024E0F090001BE0FC91
:1054A100A3E0FD900025E0FF7E00900019E0FAA343
:1054B100E02FFFEE3ACF24FFFBEF34FFFAE9FFA321
:1054C100E0F8A3E02FFFEE38CF24FFCF34FF9000A8
:1054D1003AF0A3EFF0900019E0FEA3E0FF1265544B
:1054E100E4900028F0A3F090002AE0FEA3E0FF90F2
:1054F1000028E0FCA3E0FDC39FEC9E400302569A06
:10550100900022E0F9B40C1C90001DE075F00CA491
:105511002403F582E5F03400F583E5822DF582E57B
:10552100833C807AE9B41024900028E0FEA3E0FFD8
:1055310090001DE075F010A42477F582E5F03404A5
:10554100F583E5822FF582E5833E8052E9B4182484
:10555100900028E0FEA3E0FF90001DE075F030A46C
:105561002467F582E5F0340AF583E5822FF582E5BB
:10557100833E802AE96420600302569A900028E065
:10558100FEA3E0FF90001DE075F040A42437F582F2
:10559100E5F0341CF583E5822FF582E5833EF58342
:1055A100E493900024F0E4900026F0900026E0FFC0
:1055B100C394084003025689900023E07046047E9C
:1055C10000A807088005C333CE33CED8F9FF900079
:1055D10024E0FDEF5D600590001E8003900020E057
:1055E100FEA3E0FF1265C6900027E004F0900025BD
:1055F100E0FF900027E08FF084E5F0600302568021
:10560100F0025689900026E0FF74017E00A8070889
:105611008005C333CE33CED8F9FF900024E0FDEFEF
:105621005D6014900019E0FEA3E0FFA3E0FCA3E09D
:10563100FD90001E1264BD90001AE004F070069007
:105641000019E004F090002CE0FEA3E0FFC39000FD
:105651001AE09FFD900019E09EFC900025E07A0081
:10566100B5051CEAB50418900019EEF0A3EFF0900F
:10567100001CE004F0701190001BE004F080099020
:105681000026E004F00255AC900029E004F0700619
:09569100900028E004F00254E846
:01569A0022ED
:10641A00900006EEF0A3EFF0A3ECF0A3EDF0A3EBEF
:10642A00F0A3EAF0A3E9F090000AE0FBA3E0FAA3E4
:10643A00E0F9124848FB6061900008E0FCA3E0FD27
:10644A0090000DE0FFA3E090001ECFF0A3EFF090C4
:10645A00000FE0FFA3E0900020CFF0A3EFF0900040
:10646A0011E0900022F0900012E0900023F09000DA
:10647A0006E0FEA3E0FF12543E900011E0C313FFB2
:10648A00900007E02FF0900006E03400F090000B37
:0A649A00E475F0011248A0808E2284
:07650400C3EF9E14FD7F0AA6
:08650B00900019EFF0A3EDF080
:10651300A31249ED0000000190001AE0FF14F0EF10
:106523006020A3E0F8A3E0F9A3E0FAA3E0FB900066
:1065330019E0FFE4FCFDFE1248B690001B1249E18E
:1065430080D690001BE0FCA3E0FDA3E0FEA3E0FFE8
:016553002225
:10615C00900006EEF0A3EFF0A3ECF0A3EDF0A3EAB1
:04616C00F0A3EBF0C1
:10617000E4900014F0900011E0C313900015F0E4D7
:10618000900012F090000CE0FF900012E0FEC39F20
:106190004003026287126504A804A905AA06AB079A
:1061A00090000AE0FEA3E0FFE4FCFD124941E47B1D
:1061B0000AFAF9F8124941900013EBF0A3E0706578
:1061C00090000CE014FF900012E0FEC39F5056A315
:1061D000E0704C900015E0FFEE8FF0A4FF900007F8
:1061E000E02FFF900006E035F0FE900008E0FCA3F1
:1061F000E0FD90000DE0FBA3E090001ECBF0A3EBD0
:10620000F090000FE0FBA3E0900020CBF0A3EBF0B8
:10621000900011E0900022F0E4A3F07B20805C90DD
:1062200000147401F0900015E0FF900012E08FF070
:10623000A4FF900007E02FFF900006E035F0FEC0BD
:1062400007900008E0FCA3E0FD900013E02430FB81
:1062500090000DE0FFA3E090001ECFF0A3EFF090C0
:10626000000FE0FFA3E0900020CFF0A3EFF090003C
:1062700011E0900022F0E4A3F0D00712543E900009
:0762800012E004F00261844A
:0162870022F4
:0E5EE400900006EEF0A3EFF0A3ECF0A3EDF0BB
:105EF200900013E0C313900016F0E4FFFE7DC87C0F
:105F02004290000AE0F8A3E0F9A3E0FAA3E0FB1252
:105F120046C11247C7900017EEF0A3EFF0E49000DD
:105F220014F090000EE0FF900014E0FEC39F4003C7
:105F320002602D126504A804A905AA06AB07900009
:105F420017E0FEA3E0FFE4FCFD124941E47B0AFAFC
:105F5200F9F8124941900015EBF090000EE0FF2491
:105F6200FEFE900014E06E7060EF24FEFFE434FF4A
:105F7200FE900016E0FD7C0012488E900007E02F94
:105F8200FF900006E03EFE900008E0FCA3E0FD90DA
:105F9200000FE0FBA3E090001ECBF0A3EBF090001B
:105FA20011E0FBA3E0900020CBF0A3EBF0900013F4
:105FB200E0900022F0E4A3F07B2E12543E900014F5
:105FC200E004F090000EE004F0900016E0FF900074
:105FD20014E08FF0A4FF900007E02FFF900006E08E
:105FE20035F0FEC007900008E0FCA3E0FD9000152C
:105FF200E02430FB90000FE0FFA3E090001ECFF002
:10600200A3EFF0900011E0FFA3E0900020CFF0A3F7
:10601200EFF0900013E0900022F0E4A3F0D007121A
:0B602200543E900014E004F0025F24E4
:01602D002250
:105D9600900006EEF0A3EFF0A3ECF0A3EDF0A3EA7B
:045DA600F0A3EBF08B
:105DAA009000151249ED00000000900008E0FCA3E5
:105DBA00E0FDA3E0FEA3E0FF900006E0FAA3E02FD7
:105DCA00FFEA3ECF24FFFBEF34FFFA90000CE0FE1F
:105DDA00A3E0FF900008E0F8A3E02FFFE83ECF24FD
:105DEA00FFCF34FF90003AF0A3EFF0900006E0FEF8
:105DFA00A3E0FF126554E4900011F0A3F090000AAA
:105E0A00E0FEA3E0FFC3900012E09F900011E09E25
:105E1A004003025EE3E4900013F0A3F090000CE06C
:105E2A00FEA3E0FFC3900014E09F900013E09E40A1
:105E3A0003025ECFE47F02FEFDFC900015E0F8A3AA
:105E4A00E0F9A3E0FAA3E0FB1248B690000EE0FBEB
:105E5A00A3E0FAA3E0F98F828E83124861FF1265EC
:105E6A00DEE47F02FEFDFC900015E0F8A3E0F9A352
:105E7A00E0FAA3E0FB1248B6EF2401FFE43EFE90ED
:105E8A00000EE0FBA3E0FAA3E0F98F828E831248AA
:105E9A0061FF1265DE900015E0FCA3E0FDA3E0FEC1
:105EAA00A3E02401FFE43EFEE43DFDE43CFC900057
:105EBA00151249E1900014E004F07006900013E016
:105ECA0004F0025E26900012E004F06003025E070E
:095EDA00900011E004F0025E07E3
:015EE300229C
:1045C900024833E86480F8E933E83360110460F0A5
:1045D900ED33EC337009E8FCE9FDEAFEEBFF220458
:1045E90060DED3EB9FEA9EE99DE8C2E78CF0C2F753
:1045F90095F0400CE8CCF8E9CDF9EACEFAEBCFFB1F
:104609001247FE85D0F05804700320D5B3E8047032
:10461900075002B2D502483D92D5EC0460F7E4CCCC
:10462900C0E0C398F8603B94186008400DD0E0FBE7
:10463900024815E4FBFAC9FC8028E830E406E4C91D
:10464900FBE4CAFCE830E305E4C9CACBFCE854073B
:104659006010F8C3E913F9EA13FAEB13FBEC13FC46
:10466900D8F130F52FC3E49CFCEF9BFFEE9AFEEDE9
:1046790099FDD0E0FBEF4E4D4C701222DB0302484E
:104689003AEC2CFCEF33FFEE33FEED33FDED30E772
:10469900EB024815EF2BFFEE3AFEED39FDD0E0FBBA
:1046A90050130BBB000302483DED13FDEE13FEEF63
:0846B90013FFEC13FC0248158D
:1046C100EC4D6011E8497017ED33EC3304600DE4F3
:1046D100FCFFFEFD22E933E8330470F8024833128F
:1046E10047FE58046009E4CC248150062850090291
:1046F100483D28400302483AC0E0EB4A7044B98083
:1047010006D0E0FB024829EF4E701CBD8008EBFF8C
:10471100EAFEE9FD80EBE98DF0A4FEE5F00247AA8F
:10472100E9CDF9EAFEEBFFEF89F0A4FCE5F0CE89D3
:10473100F0A42EFFE435F0CD89F0A42DFEE435F090
:104741008067EF4E7005BD80D780C3EF8BF0A4ACBE
:10475100F0EE8BF0A42CFCE435F0F8EF8AF0A42CF9
:10476100E5F038FCE433CB8DF0A42CFCE5F03BF80C
:10477100EE8AF0A42CFCE5F038F8E433CF89F0A4FC
:104781002CFCE5F038CF3400CE89F0A42FFFE5F002
:104791003EFEE433C98DF0A42EFEE5F039CD8AF05A
:1047A100A42FFFE5F03EFEE43DFD33D0E0FB5007D2
:1047B1000BBB000F02483DEC2CFCEF33FFEE33FE48
:0647C100ED33FD02481576
:1047C700EDD2E7CD33EC3392D524814006E4FFFEEA
:1047D700FDFC22FCE4CFCECDCC24E0501174FF8049
:1047E700EDC3CC13CCCD13CDCE13CECF13CF0470E6
:0747F700F030D5DE0249D3CA
:1047FE00E9D2E7C933E833F892D5EDD2E7CD33EC01
:07480E0033FC5002B2D52279
:10481500EC30E7100FBF000C0EBE00080DBD000404
:104825000BEB6014A2D5EB13FCED92E7FD2274FFB0
:10483500FCFDFEFF22E480F8A2D574FF13FC7D8009
:03484500E480EF1D
:10484800BB010689828A83E0225002E722BBFE026E
:09485800E32289828A83E49322A1
:10486100BB010CE58229F582E5833AF583E022500C
:1048710006E92582F8E622BBFE06E92582F8E22256
:0D488100E58229F582E5833AF583E4932270
:10488E00EF8DF0A4A8F0CF8CF0A428CE8DF0A42E3E
:02489E00FE22F8
:1048A000C5F0F8A3E028F0C5F0F8E58215827002A3
:0648B0001583E038F02240
:1048B600E88FF0A4CC8BF0A42CFCE98EF0A42CFCA1
:1048C6008AF0EDA42CFCEA8EF0A4CDA8F08BF0A41F
:1048D6002DCC3825F0FDE98FF0A42CCD35F0FCEB7E
:1048E6008EF0A4FEA9F0EB8FF0A4CFC5F02ECD3943
:0F48F600FEE43CFCEAA42DCE35F0FDE43CFC22B0
:1049050075F008758200EF2FFFEE33FECD33CDCC69
:1049150033CCC58233C5829BED9AEC99E5829840EC
:104925000CF582EE9BFEED9AFDEC99FC0FD5F0D6C9
:10493500E4CEFBE4CDFAE4CCF9A88222B800C1B9F3
:104945000059BA002DEC8BF084CFCECDFCE5F0CB31
:10495500F97818EF2FFFEE33FEED33FDEC33FCEB6A
:1049650033FB10D703994004EB99FB0FD8E5E4F925
:10497500FA227818EF2FFFEE33FEED33FDEC33FC12
:10498500C933C910D7059BE99A4007EC9BFCE99A06
:10499500F90FD8E0E4C9FAE4CCFB2275F010EF2F4B
:1049A500FFEE33FEED33FDCC33CCC833C810D7074B
:1049B5009BEC9AE899400AED9BFDEC9AFCE899F886
:0E49C5000FD5F0DAE4CDFBE4CCFAE4C8F92219
:0E49D300C3E49FFFE49EFEE49DFDE49CFC22F5
:0C49E100ECF0A3EDF0A3EEF0A3EFF02249
:1049ED00A8828583F0D083D082124A04124A041221
:1049FD004A04124A04E473E493A3C583C5F0C58346
:104A0D00C8C582C8F0A3C583C5F0C583C8C582C813
:014A1D002276
:0C4A1E00A42582F582E5F03583F58322A3
:00000001FF
